{
    "contractName": "Round",
    "abi": [
        {
            "inputs": [
                {
                    "internalType": "uint256",
                    "name": "_deposit",
                    "type": "uint256"
                }
            ],
            "stateMutability": "nonpayable",
            "type": "constructor"
        },
        {
            "anonymous": false,
            "inputs": [
                {
                    "indexed": false,
                    "internalType": "address",
                    "name": "_sender",
                    "type": "address"
                },
                {
                    "indexed": false,
                    "internalType": "uint256",
                    "name": "_price",
                    "type": "uint256"
                },
                {
                    "indexed": false,
                    "internalType": "uint256",
                    "name": "_timeFirst",
                    "type": "uint256"
                },
                {
                    "indexed": false,
                    "internalType": "uint256",
                    "name": "_timeSecond",
                    "type": "uint256"
                },
                {
                    "indexed": false,
                    "internalType": "uint256",
                    "name": "_value",
                    "type": "uint256"
                },
                {
                    "indexed": false,
                    "internalType": "uint256",
                    "name": "delta",
                    "type": "uint256"
                }
            ],
            "name": "ReceiveLotEvent",
            "type": "event"
        },
        {
            "anonymous": false,
            "inputs": [
                {
                    "indexed": false,
                    "internalType": "address",
                    "name": "_sender",
                    "type": "address"
                },
                {
                    "indexed": false,
                    "internalType": "uint256",
                    "name": "_price",
                    "type": "uint256"
                },
                {
                    "indexed": false,
                    "internalType": "uint256",
                    "name": "_timeFirst",
                    "type": "uint256"
                },
                {
                    "indexed": false,
                    "internalType": "uint256",
                    "name": "_timeSecond",
                    "type": "uint256"
                },
                {
                    "indexed": false,
                    "internalType": "uint256",
                    "name": "_value",
                    "type": "uint256"
                }
            ],
            "name": "SendLotEvent",
            "type": "event"
        },
        {
            "stateMutability": "payable",
            "type": "fallback"
        },
        {
            "inputs": [
                {
                    "internalType": "address",
                    "name": "_lotAddr",
                    "type": "address"
                },
                {
                    "components": [
                        {
                            "internalType": "address",
                            "name": "owner",
                            "type": "address"
                        },
                        {
                            "internalType": "uint256",
                            "name": "price",
                            "type": "uint256"
                        },
                        {
                            "internalType": "uint256",
                            "name": "H",
                            "type": "uint256"
                        },
                        {
                            "internalType": "uint256",
                            "name": "balance",
                            "type": "uint256"
                        },
                        {
                            "internalType": "uint256",
                            "name": "prevSnap",
                            "type": "uint256"
                        },
                        {
                            "internalType": "address",
                            "name": "prevOwner",
                            "type": "address"
                        },
                        {
                            "internalType": "uint256",
                            "name": "prevBalance",
                            "type": "uint256"
                        }
                    ],
                    "internalType": "struct Proof.ProofRes",
                    "name": "proofRes",
                    "type": "tuple"
                },
                {
                    "components": [
                        {
                            "internalType": "address",
                            "name": "prevOwner",
                            "type": "address"
                        },
                        {
                            "internalType": "uint256",
                            "name": "prevPrice",
                            "type": "uint256"
                        },
                        {
                            "internalType": "uint256",
                            "name": "prevSnap",
                            "type": "uint256"
                        }
                    ],
                    "internalType": "struct Proof.ProofEnoungPrice",
                    "name": "proofEP",
                    "type": "tuple"
                }
            ],
            "name": "BuyLot",
            "outputs": [],
            "stateMutability": "nonpayable",
            "type": "function"
        },
        {
            "inputs": [
                {
                    "internalType": "address",
                    "name": "_lotAddr",
                    "type": "address"
                },
                {
                    "components": [
                        {
                            "internalType": "address",
                            "name": "owner",
                            "type": "address"
                        },
                        {
                            "internalType": "uint256",
                            "name": "price",
                            "type": "uint256"
                        },
                        {
                            "internalType": "uint256",
                            "name": "H",
                            "type": "uint256"
                        },
                        {
                            "internalType": "uint256",
                            "name": "balance",
                            "type": "uint256"
                        },
                        {
                            "internalType": "uint256",
                            "name": "prevSnap",
                            "type": "uint256"
                        },
                        {
                            "internalType": "address",
                            "name": "prevOwner",
                            "type": "address"
                        },
                        {
                            "internalType": "uint256",
                            "name": "prevBalance",
                            "type": "uint256"
                        }
                    ],
                    "internalType": "struct Proof.ProofRes",
                    "name": "proofRes",
                    "type": "tuple"
                },
                {
                    "components": [
                        {
                            "internalType": "address",
                            "name": "prevOwner",
                            "type": "address"
                        },
                        {
                            "internalType": "uint256",
                            "name": "prevPrice",
                            "type": "uint256"
                        },
                        {
                            "internalType": "uint256",
                            "name": "prevSnap",
                            "type": "uint256"
                        }
                    ],
                    "internalType": "struct Proof.ProofEnoungPrice",
                    "name": "proofEP",
                    "type": "tuple"
                }
            ],
            "name": "CancelLot",
            "outputs": [],
            "stateMutability": "nonpayable",
            "type": "function"
        },
        {
            "inputs": [],
            "name": "CreateLot",
            "outputs": [
                {
                    "internalType": "address",
                    "name": "",
                    "type": "address"
                }
            ],
            "stateMutability": "nonpayable",
            "type": "function"
        },
        {
            "inputs": [
                {
                    "internalType": "address",
                    "name": "_sender",
                    "type": "address"
                },
                {
                    "internalType": "uint256",
                    "name": "_value",
                    "type": "uint256"
                }
            ],
            "name": "Enter",
            "outputs": [],
            "stateMutability": "nonpayable",
            "type": "function"
        },
        {
            "inputs": [],
            "name": "GetBalance",
            "outputs": [
                {
                    "internalType": "uint256",
                    "name": "",
                    "type": "uint256"
                }
            ],
            "stateMutability": "view",
            "type": "function"
        },
        {
            "inputs": [],
            "name": "GetExchange",
            "outputs": [
                {
                    "internalType": "address",
                    "name": "",
                    "type": "address"
                }
            ],
            "stateMutability": "view",
            "type": "function"
        },
        {
            "inputs": [],
            "name": "GetInitSnap",
            "outputs": [
                {
                    "internalType": "uint256",
                    "name": "",
                    "type": "uint256"
                }
            ],
            "stateMutability": "pure",
            "type": "function"
        },
        {
            "inputs": [],
            "name": "GetSnap",
            "outputs": [
                {
                    "internalType": "uint256",
                    "name": "",
                    "type": "uint256"
                }
            ],
            "stateMutability": "view",
            "type": "function"
        },
        {
            "inputs": [],
            "name": "GetSnapshot",
            "outputs": [
                {
                    "internalType": "uint256",
                    "name": "",
                    "type": "uint256"
                }
            ],
            "stateMutability": "view",
            "type": "function"
        },
        {
            "inputs": [
                {
                    "internalType": "address",
                    "name": "_lotAddr",
                    "type": "address"
                },
                {
                    "internalType": "uint256",
                    "name": "_timeFirst",
                    "type": "uint256"
                },
                {
                    "internalType": "uint256",
                    "name": "_timeSecond",
                    "type": "uint256"
                },
                {
                    "internalType": "uint256",
                    "name": "_val",
                    "type": "uint256"
                },
                {
                    "components": [
                        {
                            "internalType": "address",
                            "name": "owner",
                            "type": "address"
                        },
                        {
                            "internalType": "uint256",
                            "name": "price",
                            "type": "uint256"
                        },
                        {
                            "internalType": "uint256",
                            "name": "H",
                            "type": "uint256"
                        },
                        {
                            "internalType": "uint256",
                            "name": "balance",
                            "type": "uint256"
                        },
                        {
                            "internalType": "uint256",
                            "name": "prevSnap",
                            "type": "uint256"
                        },
                        {
                            "internalType": "address",
                            "name": "prevOwner",
                            "type": "address"
                        },
                        {
                            "internalType": "uint256",
                            "name": "prevBalance",
                            "type": "uint256"
                        }
                    ],
                    "internalType": "struct Proof.ProofRes",
                    "name": "proof",
                    "type": "tuple"
                }
            ],
            "name": "NewLot",
            "outputs": [],
            "stateMutability": "nonpayable",
            "type": "function"
        },
        {
            "inputs": [
                {
                    "internalType": "address",
                    "name": "_lotAddr",
                    "type": "address"
                },
                {
                    "internalType": "uint256",
                    "name": "_timeFirst",
                    "type": "uint256"
                },
                {
                    "internalType": "uint256",
                    "name": "_timeSecond",
                    "type": "uint256"
                },
                {
                    "internalType": "uint256",
                    "name": "_value",
                    "type": "uint256"
                },
                {
                    "internalType": "address",
                    "name": "_sender",
                    "type": "address"
                }
            ],
            "name": "ReceiveCanceled",
            "outputs": [],
            "stateMutability": "nonpayable",
            "type": "function"
        },
        {
            "inputs": [
                {
                    "internalType": "address",
                    "name": "_lotAddr",
                    "type": "address"
                },
                {
                    "internalType": "uint256",
                    "name": "_timeFirst",
                    "type": "uint256"
                },
                {
                    "internalType": "uint256",
                    "name": "_timeSecond",
                    "type": "uint256"
                },
                {
                    "internalType": "uint256",
                    "name": "_value",
                    "type": "uint256"
                },
                {
                    "components": [
                        {
                            "internalType": "address",
                            "name": "owner",
                            "type": "address"
                        },
                        {
                            "internalType": "uint256",
                            "name": "price",
                            "type": "uint256"
                        },
                        {
                            "internalType": "uint256",
                            "name": "H",
                            "type": "uint256"
                        },
                        {
                            "internalType": "uint256",
                            "name": "balance",
                            "type": "uint256"
                        },
                        {
                            "internalType": "uint256",
                            "name": "prevSnap",
                            "type": "uint256"
                        },
                        {
                            "internalType": "address",
                            "name": "prevOwner",
                            "type": "address"
                        },
                        {
                            "internalType": "uint256",
                            "name": "prevBalance",
                            "type": "uint256"
                        }
                    ],
                    "internalType": "struct Proof.ProofRes",
                    "name": "proof",
                    "type": "tuple"
                }
            ],
            "name": "ReceiveLot",
            "outputs": [
                {
                    "internalType": "uint256",
                    "name": "newBalance",
                    "type": "uint256"
                }
            ],
            "stateMutability": "nonpayable",
            "type": "function"
        },
        {
            "inputs": [
                {
                    "internalType": "address",
                    "name": "_lotAddr",
                    "type": "address"
                },
                {
                    "internalType": "uint256",
                    "name": "_timeFirst",
                    "type": "uint256"
                },
                {
                    "internalType": "uint256",
                    "name": "_timeSecond",
                    "type": "uint256"
                },
                {
                    "internalType": "uint256",
                    "name": "_value",
                    "type": "uint256"
                },
                {
                    "internalType": "address",
                    "name": "_sender",
                    "type": "address"
                }
            ],
            "name": "SendCanceled",
            "outputs": [],
            "stateMutability": "nonpayable",
            "type": "function"
        },
        {
            "inputs": [
                {
                    "internalType": "address",
                    "name": "_lotAddr",
                    "type": "address"
                },
                {
                    "internalType": "uint256",
                    "name": "_timeFirst",
                    "type": "uint256"
                },
                {
                    "internalType": "uint256",
                    "name": "_timeSecond",
                    "type": "uint256"
                },
                {
                    "internalType": "uint256",
                    "name": "_value",
                    "type": "uint256"
                }
            ],
            "name": "SendLot",
            "outputs": [],
            "stateMutability": "nonpayable",
            "type": "function"
        },
        {
            "inputs": [],
            "name": "StartRound",
            "outputs": [],
            "stateMutability": "nonpayable",
            "type": "function"
        },
        {
            "inputs": [
                {
                    "components": [
                        {
                            "internalType": "address",
                            "name": "owner",
                            "type": "address"
                        },
                        {
                            "internalType": "uint256",
                            "name": "price",
                            "type": "uint256"
                        },
                        {
                            "internalType": "uint256",
                            "name": "H",
                            "type": "uint256"
                        },
                        {
                            "internalType": "uint256",
                            "name": "balance",
                            "type": "uint256"
                        },
                        {
                            "internalType": "uint256",
                            "name": "prevSnap",
                            "type": "uint256"
                        },
                        {
                            "internalType": "address",
                            "name": "prevOwner",
                            "type": "address"
                        },
                        {
                            "internalType": "uint256",
                            "name": "prevBalance",
                            "type": "uint256"
                        }
                    ],
                    "internalType": "struct Proof.ProofRes",
                    "name": "proof",
                    "type": "tuple"
                }
            ],
            "name": "VerifyProofRes",
            "outputs": [
                {
                    "internalType": "bool",
                    "name": "",
                    "type": "bool"
                }
            ],
            "stateMutability": "view",
            "type": "function"
        },
        {
            "stateMutability": "payable",
            "type": "receive"
        }
    ],
    "bytecode": "6080604052600019600a553480156200001757600080fd5b506040516200312f3803806200312f8339810160408190526200003a91620000c2565b600480546001600160a01b03199081163317909155600882905560008054909116301781556040516200006d90620000b4565b604051809103906000f0801580156200008a573d6000803e3d6000fd5b50600780546001600160a01b0319166001600160a01b039290921691909117905550620000dc9050565b6103198062002e1683390190565b600060208284031215620000d557600080fd5b5051919050565b612d2a80620000ec6000396000f3fe6080604052600436106100eb5760003560e01c80639108e55111610084578063c7b539ed11610056578063c7b539ed14610284578063ca07af2b14610299578063d53e743e146102b9578063f8f8a912146102ce57005b80639108e5511461020f5780639e5a185e1461022f5780639f7a0bc11461024f578063aa7d75681461026f57005b80635c539524116100bd5780635c5395241461016d578063643de7061461019f5780636ef3207b146101cf57806382a71d0d146101ef57005b80631fb48929146100f457806324e04f9914610114578063259fd68e146101385780634484386b1461014d57005b366100f257005b005b34801561010057600080fd5b506100f261010f3660046117c4565b6102ed565b34801561012057600080fd5b506000195b6040519081526020015b60405180910390f35b34801561014457600080fd5b50610125610401565b34801561015957600080fd5b506100f2610168366004611772565b610487565b34801561017957600080fd5b506007546001600160a01b03165b6040516001600160a01b03909116815260200161012f565b3480156101ab57600080fd5b506101bf6101ba3660046118bd565b6106e2565b604051901515815260200161012f565b3480156101db57600080fd5b506100f26101ea366004611827565b610777565b3480156101fb57600080fd5b506100f261020a366004611827565b6108fe565b34801561021b57600080fd5b5061012561022a366004611877565b610acd565b34801561023b57600080fd5b506100f261024a366004611877565b610e01565b34801561025b57600080fd5b506100f261026a366004611772565b611012565b34801561027b57600080fd5b506100f26111a2565b34801561029057600080fd5b50600a54610125565b3480156102a557600080fd5b506100f26102b43660046117ee565b611363565b3480156102c557600080fd5b506101876115d6565b3480156102da57600080fd5b506000546001600160a01b031631610125565b6004546001600160a01b031633146103205760405162461bcd60e51b815260040161031790611a8b565b60405180910390fd5b6008548110156103675760405162461bcd60e51b8152602060048201526012602482015271139bdd08195b9bdd5d1a0819195c1bdcda5d60721b6044820152606401610317565b6001600160a01b0382166000908152600560205260408120805483929061038f908490611b2a565b9250508190555080600260008282546103a89190611b2a565b9091555050600680546001810182556000919091527ff652222313e28459528d920b65115c16c04f3efc82aaedc97be59f3f377c0d3f0180546001600160a01b0319166001600160a01b03939093169290921790915550565b600954604080516312cfeb4760e11b815290516000926001600160a01b031691829163259fd68e91600480820192602092909190829003018186803b15801561044957600080fd5b505afa15801561045d573d6000803e3d6000fd5b505050506040513d601f19601f8201168201806040525081019061048191906118d9565b91505090565b6004546001600160a01b031633146104b15760405162461bcd60e51b815260040161031790611a8b565b81600073__$328e762fe217dd0aa4c7b310161b351958$__63893780c9836040518263ffffffff1660e01b81526004016104eb9190611aea565b60206040518083038186803b15801561050357600080fd5b505af4158015610517573d6000803e3d6000fd5b505050506040513d601f19601f8201168201806040525081019061053b91906118d9565b9050600a54811461055e5760405162461bcd60e51b815260040161031790611a68565b8160600135826020013511156105865760405162461bcd60e51b815260040161031790611ac2565b73__$c934e6f37e5a020bb955f8930b94320367$__63ac6ca2856105ad6020870187611750565b6105bd60c0880160a08901611750565b604080516001600160e01b031960e086901b1681526001600160a01b0393841660048201529290911660248301526060880135604483015260c088013560648301526020880135608483015287013560a482015260c40160206040518083038186803b15801561062c57600080fd5b505af4158015610640573d6000803e3d6000fd5b505050506040513d601f19601f8201168201806040525081019061066491906118d9565b600a55846001600160a01b03811663a8fda7796106846020880188611750565b8760200135876040518463ffffffff1660e01b81526004016106a8939291906119bf565b600060405180830381600087803b1580156106c257600080fd5b505af11580156106d6573d6000803e3d6000fd5b50505050505050505050565b60008073__$328e762fe217dd0aa4c7b310161b351958$__63893780c9846040518263ffffffff1660e01b815260040161071c9190611aea565b60206040518083038186803b15801561073457600080fd5b505af4158015610748573d6000803e3d6000fd5b505050506040513d601f19601f8201168201806040525081019061076c91906118d9565b600a54149392505050565b6004546001600160a01b031633146107a15760405162461bcd60e51b815260040161031790611a8b565b600754604051632784ebc760e01b81526004810186905260248101859052604481018490526001600160a01b03838116606483015291821691879190821690632784ebc790608401600060405180830381600087803b15801561080357600080fd5b505af1158015610817573d6000803e3d6000fd5b50506040516319cbe69560e01b815260048101879052600092506001600160a01b03851691506319cbe6959060240160206040518083038186803b15801561085e57600080fd5b505afa158015610872573d6000803e3d6000fd5b505050506040513d601f19601f8201168201806040525081019061089691906118d9565b60405163774c945360e11b8152600481018290529091506001600160a01b0383169063ee9928a6906024015b600060405180830381600087803b1580156108dc57600080fd5b505af11580156108f0573d6000803e3d6000fd5b505050505050505050505050565b6004546001600160a01b031633146109285760405162461bcd60e51b815260040161031790611a8b565b600754604051639127624b60e01b81526004810186905260248101859052604481018490526001600160a01b03838116606483015291821691879190821690639127624b90608401600060405180830381600087803b15801561098a57600080fd5b505af115801561099e573d6000803e3d6000fd5b505050506000816001600160a01b03166352c4d14c6040518163ffffffff1660e01b815260040160206040518083038186803b1580156109dd57600080fd5b505afa1580156109f1573d6000803e3d6000fd5b505050506040513d601f19601f82011682018060405250810190610a1591906118d9565b6040516394e8904960e01b8152600481018290529091506000906001600160a01b038516906394e890499060240160206040518083038186803b158015610a5b57600080fd5b505afa158015610a6f573d6000803e3d6000fd5b505050506040513d601f19601f82011682018060405250810190610a9391906118d9565b9050610ac26040518060400160405280600c81526020016b165bdd581c99481c9a59da1d60a21b81525061165f565b505050505050505050565b6004546000906001600160a01b03163314610afa5760405162461bcd60e51b815260040161031790611a8b565b6007546040516312197c1360e11b81526001600160a01b0391821691889190821690632432f82690610b36908a908a908a908a90600401611afe565b600060405180830381600087803b158015610b5057600080fd5b505af1158015610b64573d6000803e3d6000fd5b5050505060004790506000836001600160a01b03166349c195d66040518163ffffffff1660e01b815260040160206040518083038186803b158015610ba857600080fd5b505afa158015610bbc573d6000803e3d6000fd5b505050506040513d601f19601f82011682018060405250810190610be091906118d9565b604051631324e94560e11b8152600481018290529091506001600160a01b03851690632649d28a90602401600060405180830381600087803b158015610c2557600080fd5b505af1158015610c39573d6000803e3d6000fd5b505050506000878347610c4c9190611b42565b610c569190611b42565b905060008112610d115773__$c934e6f37e5a020bb955f8930b94320367$__63963d1c0f610c8760208a018a611750565b89606001358a604001358b602001356040518563ffffffff1660e01b8152600401610cb59493929190611a05565b604080518083038186803b158015610ccc57600080fd5b505af4158015610ce0573d6000803e3d6000fd5b505050506040513d601f19601f82011682018060405250810190610d0491906118f2565b600a919091559550610dc6565b73__$c934e6f37e5a020bb955f8930b94320367$__63963d1c0f610d3860208a018a611750565b60608a013560408b0135610d4f60208d0135611bb8565b6040518563ffffffff1660e01b8152600401610d6e9493929190611a05565b604080518083038186803b158015610d8557600080fd5b505af4158015610d99573d6000803e3d6000fd5b505050506040513d601f19601f82011682018060405250810190610dbd91906118f2565b600a9190915595505b610df36040518060400160405280600c81526020016b131bdd081c9958d95a5d995960a21b81525061165f565b505050505095945050505050565b6004546001600160a01b03163314610e2b5760405162461bcd60e51b815260040161031790611a8b565b80600073__$328e762fe217dd0aa4c7b310161b351958$__63893780c9836040518263ffffffff1660e01b8152600401610e659190611aea565b60206040518083038186803b158015610e7d57600080fd5b505af4158015610e91573d6000803e3d6000fd5b505050506040513d601f19601f82011682018060405250810190610eb591906118d9565b9050600a548114610ed85760405162461bcd60e51b815260040161031790611a68565b816060013582602001351115610f005760405162461bcd60e51b815260040161031790611ac2565b73__$c934e6f37e5a020bb955f8930b94320367$__637d4716f5610f276020860186611750565b8560600135866020013587604001356040518563ffffffff1660e01b8152600401610f559493929190611a05565b60206040518083038186803b158015610f6d57600080fd5b505af4158015610f81573d6000803e3d6000fd5b505050506040513d601f19601f82011682018060405250810190610fa591906118d9565b600a55866001600160a01b038116639d0b59d28888610fc76020890189611750565b6040516001600160e01b031960e086901b168152600481019390935260248301919091526001600160a01b03166044820152602087013560648201526084810188905260a4016108c2565b81600073__$328e762fe217dd0aa4c7b310161b351958$__63893780c9836040518263ffffffff1660e01b815260040161104c9190611aea565b60206040518083038186803b15801561106457600080fd5b505af4158015611078573d6000803e3d6000fd5b505050506040513d601f19601f8201168201806040525081019061109c91906118d9565b9050600a5481146110bf5760405162461bcd60e51b815260040161031790611a68565b8160600135826020013511156110e75760405162461bcd60e51b815260040161031790611ac2565b846001600160a01b03811663702c90596111046020880188611750565b8660200135876040518463ffffffff1660e01b8152600401611128939291906119bf565b600060405180830381600087803b15801561114257600080fd5b505af1158015611156573d6000803e3d6000fd5b5050505061119a6040518060400160405280600c81526020016b021b0b731b2b6103637ba1d160a51b8152508660000160208101906111959190611750565b6116a5565b505050505050565b6004546001600160a01b031633146111cc5760405162461bcd60e51b815260040161031790611a8b565b60005b60065460ff8216101561132c5760006005600060068460ff16815481106111f8576111f8611beb565b60009182526020808320909101546001600160a01b03168352820192909252604001902055600a546006805473__$36f08d1c91f36d2cebbcff25cc7faa1ac7$__92639ed41ba192909160ff861690811061125557611255611beb565b60009182526020918290200154600854604051611287936001600160a01b039093169201918252602082015260400190565b60408051601f198184030181529082905280516020909101206001600160e01b031960e085901b1682526112c79291600401918252602082015260400190565b60206040518083038186803b1580156112df57600080fd5b505af41580156112f3573d6000803e3d6000fd5b505050506040513d601f19601f8201168201806040525081019061131791906118d9565b600a558061132481611b98565b9150506111cf565b600a5460405160200161134191815260200190565b60408051601f198184030181529190528051602090910120600a555042600355565b6004546001600160a01b0316331461138d5760405162461bcd60e51b815260040161031790611a8b565b600754604051633cf00db960e21b81526004810185905260248101849052604481018390526001600160a01b039182169186919082169063f3c036e490606401600060405180830381600087803b1580156113e757600080fd5b505af11580156113fb573d6000803e3d6000fd5b505050506000826001600160a01b03166349c195d66040518163ffffffff1660e01b815260040160206040518083038186803b15801561143a57600080fd5b505afa15801561144e573d6000803e3d6000fd5b505050506040513d601f19601f8201168201806040525081019061147291906118d9565b9050826001600160a01b031663f561e325856040518263ffffffff1660e01b81526004016000604051808303818588803b1580156114af57600080fd5b505af11580156114c3573d6000803e3d6000fd5b5050505050816001600160a01b031663ee9928a682856001600160a01b03166349c195d66040518163ffffffff1660e01b815260040160206040518083038186803b15801561151157600080fd5b505afa158015611525573d6000803e3d6000fd5b505050506040513d601f19601f8201168201806040525081019061154991906118d9565b6115539190611b81565b6040518263ffffffff1660e01b815260040161157191815260200190565b600060405180830381600087803b15801561158b57600080fd5b505af115801561159f573d6000803e3d6000fd5b505050506115cd6040518060400160405280600981526020016802637ba1039b2b73a160bd1b81525061165f565b50505050505050565b6004546000906001600160a01b031633146116035760405162461bcd60e51b815260040161031790611a8b565b60035461160f57600080fd5b600060405161161d9061170f565b604051809103906000f080158015611639573d6000803e3d6000fd5b50600980546001600160a01b039092166001600160a01b03199092168217905591505090565b6116a2816040516024016116739190611a2b565b60408051601f198184030181529190526020810180516001600160e01b031663104c13eb60e21b1790526116ee565b50565b6116ea82826040516024016116bb929190611a3e565b60408051601f198184030181529190526020810180516001600160e01b031663319af33360e01b1790526116ee565b5050565b80516a636f6e736f6c652e6c6f67602083016000808483855afa5050505050565b6110f380611c0283390190565b80356001600160a01b038116811461173357600080fd5b919050565b600060e0828403121561174a57600080fd5b50919050565b60006020828403121561176257600080fd5b61176b8261171c565b9392505050565b600080600083850361016081121561178957600080fd5b6117928561171c565b93506117a18660208701611738565b9250606060ff19820112156117b557600080fd5b50610100840190509250925092565b600080604083850312156117d757600080fd5b6117e08361171c565b946020939093013593505050565b6000806000806080858703121561180457600080fd5b61180d8561171c565b966020860135965060408601359560600135945092505050565b600080600080600060a0868803121561183f57600080fd5b6118488661171c565b945060208601359350604086013592506060860135915061186b6080870161171c565b90509295509295909350565b6000806000806000610160868803121561189057600080fd5b6118998661171c565b945060208601359350604086013592506060860135915061186b8760808801611738565b600060e082840312156118cf57600080fd5b61176b8383611738565b6000602082840312156118eb57600080fd5b5051919050565b6000806040838503121561190557600080fd5b505080516020909101519092909150565b6000815180845260005b8181101561193c57602081850181015186830182015201611920565b8181111561194e576000602083870101525b50601f01601f19169290920160200192915050565b6001600160a01b03806119758361171c565b16835260208201356020840152604082013560408401526060820135606084015260808201356080840152806119ad60a0840161171c565b1660a08401525060c090810135910152565b6001600160a01b0384811682526020820184905260a0820190806119e28561171c565b166040840152506020830135606083015260408301356080830152949350505050565b6001600160a01b0394909416845260208401929092526040830152606082015260800190565b60208152600061176b6020830184611916565b604081526000611a516040830185611916565b905060018060a01b03831660208301529392505050565b6020808252600990820152682737ba10383937b7b360b91b604082015260600190565b6020808252601a908201527f49746073206e6f7420612067726f757020636f6e747261637421000000000000604082015260600190565b6020808252600e908201526d4e6f7420656e6f756e672072657360901b604082015260600190565b60e08101611af88284611963565b92915050565b84815260208101849052604081018390526101408101611b216060830184611963565b95945050505050565b60008219821115611b3d57611b3d611bd5565b500190565b60008083128015600160ff1b850184121615611b6057611b60611bd5565b6001600160ff1b0384018313811615611b7b57611b7b611bd5565b50500390565b600082821015611b9357611b93611bd5565b500390565b600060ff821660ff811415611baf57611baf611bd5565b60010192915050565b6000600160ff1b821415611bce57611bce611bd5565b5060000390565b634e487b7160e01b600052601160045260246000fd5b634e487b7160e01b600052603260045260246000fdfe608060405234801561001057600080fd5b50600080546001600160a01b0319163317905560405161004d9060200160208082526006908201526518db1bdcd95960d21b604082015260600190565b60408051601f19818403018152919052805160209091012060035561107c806100776000396000f3fe608060405234801561001057600080fd5b506004361061009e5760003560e01c80639127624b116100665780639127624b146100fc5780639d0b59d21461010f578063a8fda77914610122578063ee9928a614610135578063f3c036e41461014857600080fd5b80632432f826146100a3578063259fd68e146100b85780632784ebc7146100ce57806352c4d14c146100e1578063702c9059146100e9575b600080fd5b6100b66100b1366004610df8565b61015b565b005b6001545b60405190815260200160405180910390f35b6100b66100dc366004610db9565b610362565b6004546100bc565b6100b66100f7366004610ccc565b610446565b6100b661010a366004610db9565b6105c2565b6100b661011d366004610d46565b610680565b6100b6610130366004610ccc565b610844565b6100b6610143366004610d14565b610ad8565b6100b6610156366004610d8d565b610b49565b6000546001600160a01b0316331461018e5760405162461bcd60e51b815260040161018590610f58565b60405180910390fd5b83838360025461019f848484610c0c565b146101bc5760405162461bcd60e51b815260040161018590610f06565b83600073__$328e762fe217dd0aa4c7b310161b351958$__63cc5a0271836040518263ffffffff1660e01b81526004016101f69190610fe1565b60206040518083038186803b15801561020e57600080fd5b505af4158015610222573d6000803e3d6000fd5b505050506040513d601f19601f820116820180604052508101906102469190610d2d565b905060015481146102915760405162461bcd60e51b81526020600482015260156024820152742737ba103934b3b43a10383937b7b31037bbb732b960591b6044820152606401610185565b6040516020016102b9906020808252600490820152631dd85a5d60e21b604082015260600190565b6040516020818303038152906040528051906020012060001c6003541461030d5760405162461bcd60e51b81526020600482015260086024820152671b9bdd081dd85a5d60c21b6044820152606401610185565b6000421161032d5760405162461bcd60e51b815260040161018590610f2e565b60405160200161033c90610f8f565b60408051601f198184030181529190528051602090910120600355505050505050505050565b6000546001600160a01b0316331461038c5760405162461bcd60e51b815260040161018590610f58565b83838360025461039d848484610c0c565b146103ba5760405162461bcd60e51b815260040161018590610f06565b836040516020016103cb9190610e70565b6040516020818303038152906040528051906020012060001c600354146103f157600080fd5b600042116104115760405162461bcd60e51b815260040161018590610f2e565b836040516020016104229190610e42565b60408051601f19818403018152919052805160209091012060035550505050505050565b6000546001600160a01b031633146104705760405162461bcd60e51b815260040161018590610f58565b80600073__$328e762fe217dd0aa4c7b310161b351958$__637bb3f4a7836040518263ffffffff1660e01b81526004016104aa9190610faf565b60206040518083038186803b1580156104c257600080fd5b505af41580156104d6573d6000803e3d6000fd5b505050506040513d601f19601f820116820180604052508101906104fa9190610d2d565b905060015481146105485760405162461bcd60e51b81526020600482015260186024820152772737ba103934b3b43a10383932bb34b7bab99037bbb732b960411b6044820152606401610185565b8260200135841461058f5760405162461bcd60e51b81526020600482015260116024820152704e6f7420636f727265637420707269636560781b6044820152606401610185565b846040516020016105a09190610e70565b60408051601f1981840301815291905280516020909101206003555050505050565b6000546001600160a01b031633146105ec5760405162461bcd60e51b815260040161018590610f58565b8383836002546105fd848484610c0c565b1461061a5760405162461bcd60e51b815260040161018590610f06565b8360405160200161062b9190610e42565b6040516020818303038152906040528051906020012060001c6003541461065157600080fd5b600042116106715760405162461bcd60e51b815260040161018590610f2e565b60405160200161042290610f8f565b6000546001600160a01b031633146106aa5760405162461bcd60e51b815260040161018590610f58565b6040516020016106b990610f8f565b6040516020818303038152906040528051906020012060001c6003541461070c5760405162461bcd60e51b81526020600482015260076024820152664e6f74206e657760c81b6044820152606401610185565b6040516001600160601b0319606085901b166020820152603481018390526000605482015260740160408051808303601f190181528282528051602091820120600155820187905281018590526060810182905260800160408051808303601f1901815282825280516020918201206002558083015260059082015264656d70747960d81b606082015260800160408051808303601f1901815282825280516020918201206003556001548884529083018790526001600160a01b03861691830191909152606082018490526080820183905260a08201527f176cfa05032d8c4f06bee6c01f1383987d947d3df86d56b2c1b6f66ddfa576669060c00160405180910390a161083d6040518060400160405280600981526020016802732bb903637ba1d160bd1b8152508484610c43565b5050505050565b6000546001600160a01b0316331461086e5760405162461bcd60e51b815260040161018590610f58565b8082600073__$328e762fe217dd0aa4c7b310161b351958$__637bb3f4a7846040518263ffffffff1660e01b81526004016108a99190610faf565b60206040518083038186803b1580156108c157600080fd5b505af41580156108d5573d6000803e3d6000fd5b505050506040513d601f19601f820116820180604052508101906108f99190610d2d565b905060015481146109475760405162461bcd60e51b81526020600482015260186024820152772737ba103934b3b43a10383932bb34b7bab99037bbb732b960411b6044820152606401610185565b8260200135821161099a5760405162461bcd60e51b815260206004820152601760248201527f4e6577207072696365206c657373207468616e206f6c640000000000000000006044820152606401610185565b6040516020016109c390602080825260059082015264656d70747960d81b604082015260600190565b6040516020818303038152906040528051906020012060001c60035414610a185760405162461bcd60e51b81526020600482015260096024820152686e6f7420656d70747960b81b6044820152606401610185565b6001546040516001600160601b0319606089901b16602082015260348101879052605481019190915260740160408051808303601f19018152828252805160209182012060018190556001600160a01b038a168452908301889052908201527f067b1f5bcdf6f36d2c8168184003e87417ef07fd2fbd6c68ad03c7733e8d51ad9060600160405180910390a1610ad0604051806040016040528060098152602001680213abc903637ba1d160bd1b8152508787610c43565b505050505050565b6000546001600160a01b03163314610b025760405162461bcd60e51b815260040161018590610f58565b60008111610b445760405162461bcd60e51b815260206004820152600f60248201526e756e636f72726563742076616c756560881b6044820152606401610185565b600455565b6000546001600160a01b03163314610b735760405162461bcd60e51b815260040161018590610f58565b828282600254610b84848484610c0c565b14610ba15760405162461bcd60e51b815260040161018590610f06565b60004211610bc15760405162461bcd60e51b815260040161018590610f2e565b604051602001610be9906020808252600490820152631dd85a5d60e21b604082015260600190565b60408051601f198184030181529190528051602090910120600355505050505050565b6040805160208082019590955280820193909352606080840192909252805180840390920182526080909201909152805191012090565b610c8a838383604051602401610c5b93929190610e99565b60408051601f198184030181529190526020810180516001600160e01b0316630d26b92560e01b179052610c8f565b505050565b80516a636f6e736f6c652e6c6f67602083016000808483855afa5050505050565b80356001600160a01b0381168114610cc757600080fd5b919050565b600080600083850360a0811215610ce257600080fd5b610ceb85610cb0565b9350602085013592506060603f1982011215610d0657600080fd5b506040840190509250925092565b600060208284031215610d2657600080fd5b5035919050565b600060208284031215610d3f57600080fd5b5051919050565b600080600080600060a08688031215610d5e57600080fd5b8535945060208601359350610d7560408701610cb0565b94979396509394606081013594506080013592915050565b600080600060608486031215610da257600080fd5b505081359360208301359350604090920135919050565b60008060008060808587031215610dcf57600080fd5b843593506020850135925060408501359150610ded60608601610cb0565b905092959194509250565b600080600080848603610140811215610e1057600080fd5b85359450602086013593506040860135925060e0605f1982011215610e3457600080fd5b509295919450926060019150565b6c1dd85a5d0818d85b98d95b1959609a1b815260609190911b6001600160601b031916600d82015260210190565b6718d85b98d95b195960c21b815260609190911b6001600160601b0319166008820152601c0190565b606081526000845180606084015260005b81811015610ec75760208188018101516080868401015201610eaa565b81811115610ed9576000608083860101525b506001600160a01b039490941660208301525060408101919091526080601f909201601f19160101919050565b6020808252600e908201526d139bdd081c1c9bdbd9881a5b9a5d60921b604082015260600190565b60208082526010908201526f4e6f7420636f72726563742074696d6560801b604082015260600190565b6020808252601a908201527f49746073206e6f74206120726f756e6420636f6e747261637421000000000000604082015260600190565b60208082526006908201526518db1bdcd95960d21b604082015260600190565b606081016001600160a01b03610fc484610cb0565b168252602083013560208301526040830135604083015292915050565b60e081016001600160a01b0380610ff785610cb0565b168352602084013560208401526040840135604084015260608401356060840152608084013560808401528061102f60a08601610cb0565b1660a08401525060c083013560c08301529291505056fea2646970667358221220bfea2f9f520086fad913b0db3cd6d6e8325db4ffb785804c163f4956e50d139d64736f6c63430008070033a2646970667358221220dfe127092f58e21ff7883433e52c29ac661907eb4b86050d7e8f14fd9f353d7964736f6c63430008070033608060405234801561001057600080fd5b50600080546001600160a01b0319908116331790915560018054909116301790556102d9806100406000396000f3fe6080604052600436106100555760003560e01c80630ae50a391461005a57806319cbe695146100875780632649d28a146100b357806349c195d6146100c857806394e89049146100ea578063f561e3251461010a575b600080fd5b34801561006657600080fd5b506000546040516001600160a01b0390911681526020015b60405180910390f35b34801561009357600080fd5b506100a56100a2366004610245565b90565b60405190815260200161007e565b6100c66100c1366004610245565b610112565b005b3480156100d457600080fd5b50336000908152600260205260409020546100a5565b3480156100f657600080fd5b506100a5610105366004610245565b61020c565b6100c661021f565b6001546001600160a01b0316318111156101645760405162461bcd60e51b815260206004820152600e60248201526d09cdee840cadcdeeacee840cae8d60931b60448201526064015b60405180910390fd5b6000546001600160a01b031633146101ac5760405162461bcd60e51b815260206004820152600b60248201526a139bdd0818481c9bdd5b9960aa1b604482015260640161015b565b33600090815260026020526040812080548392906101cb908490610276565b909155503390506108fc6101e0600184610276565b6040518115909202916000818181858888f19350505050158015610208573d6000803e3d6000fd5b5050565b600061021982600161025e565b92915050565b336000908152600260205260408120805434929061023e90849061025e565b9091555050565b60006020828403121561025757600080fd5b5035919050565b600082198211156102715761027161028d565b500190565b6000828210156102885761028861028d565b500390565b634e487b7160e01b600052601160045260246000fdfea264697066735822122031023812aa49d9bc8f2628d8c94de2b66f5c56aa2c22bb8a1fd215b9ec748c0f64736f6c63430008070033",
    "sourcePath": "/home/vladimir/soc_api_2/group-contracts/contracts/Round.sol",
    "compiler": {
        "name": "solc",
        "version": "0.8.7+commit.e28d00a7"
    },
    "functionHashes": {
        "BuyLot(address,(address,uint256,uint256,uint256,uint256,address,uint256),(address,uint256,uint256))": "4484386b",
        "CancelLot(address,(address,uint256,uint256,uint256,uint256,address,uint256),(address,uint256,uint256))": "9f7a0bc1",
        "CreateLot()": "d53e743e",
        "Enter(address,uint256)": "1fb48929",
        "GetBalance()": "f8f8a912",
        "GetExchange()": "5c539524",
        "GetInitSnap()": "24e04f99",
        "GetSnap()": "259fd68e",
        "GetSnapshot()": "c7b539ed",
        "NewLot(address,uint256,uint256,uint256,(address,uint256,uint256,uint256,uint256,address,uint256))": "9e5a185e",
        "ReceiveCanceled(address,uint256,uint256,uint256,address)": "82a71d0d",
        "ReceiveLot(address,uint256,uint256,uint256,(address,uint256,uint256,uint256,uint256,address,uint256))": "9108e551",
        "SendCanceled(address,uint256,uint256,uint256,address)": "6ef3207b",
        "SendLot(address,uint256,uint256,uint256)": "ca07af2b",
        "StartRound()": "aa7d7568",
        "VerifyProofRes((address,uint256,uint256,uint256,uint256,address,uint256))": "643de706"
    },
    "gasEstimates": {
        "creation": {
            "codeDepositCost": "2312400",
            "executionCost": "infinite",
            "totalCost": "infinite"
        },
        "external": {
            "": "185",
            "BuyLot(address,(address,uint256,uint256,uint256,uint256,address,uint256),(address,uint256,uint256))": "infinite",
            "CancelLot(address,(address,uint256,uint256,uint256,uint256,address,uint256),(address,uint256,uint256))": "infinite",
            "CreateLot()": "infinite",
            "Enter(address,uint256)": "infinite",
            "GetBalance()": "4987",
            "GetExchange()": "2343",
            "GetInitSnap()": "219",
            "GetSnap()": "infinite",
            "GetSnapshot()": "2303",
            "NewLot(address,uint256,uint256,uint256,(address,uint256,uint256,uint256,uint256,address,uint256))": "infinite",
            "ReceiveCanceled(address,uint256,uint256,uint256,address)": "infinite",
            "ReceiveLot(address,uint256,uint256,uint256,(address,uint256,uint256,uint256,uint256,address,uint256))": "infinite",
            "SendCanceled(address,uint256,uint256,uint256,address)": "infinite",
            "SendLot(address,uint256,uint256,uint256)": "infinite",
            "StartRound()": "infinite",
            "VerifyProofRes((address,uint256,uint256,uint256,uint256,address,uint256))": "infinite"
        }
    }
}